{
  "_format": "hh-sol-artifact-1",
  "contractName": "TrustChain",
  "sourceName": "contracts/TrustChain.sol",
  "abi": [
    {
      "anonymous": false,
      "inputs": [
        {
          "indexed": true,
          "internalType": "bytes32",
          "name": "deliveryHash",
          "type": "bytes32"
        },
        {
          "indexed": true,
          "internalType": "address",
          "name": "sender",
          "type": "address"
        },
        {
          "indexed": false,
          "internalType": "uint256",
          "name": "timestamp",
          "type": "uint256"
        }
      ],
      "name": "DeliveryStored",
      "type": "event"
    },
    {
      "inputs": [
        {
          "internalType": "bytes32",
          "name": "_hash",
          "type": "bytes32"
        }
      ],
      "name": "storeHash",
      "outputs": [],
      "stateMutability": "nonpayable",
      "type": "function"
    },
    {
      "inputs": [
        {
          "internalType": "bytes32",
          "name": "",
          "type": "bytes32"
        }
      ],
      "name": "storedHashes",
      "outputs": [
        {
          "internalType": "bool",
          "name": "",
          "type": "bool"
        }
      ],
      "stateMutability": "view",
      "type": "function"
    },
    {
      "inputs": [
        {
          "internalType": "bytes32",
          "name": "_hash",
          "type": "bytes32"
        }
      ],
      "name": "verifyHash",
      "outputs": [
        {
          "internalType": "bool",
          "name": "",
          "type": "bool"
        }
      ],
      "stateMutability": "view",
      "type": "function"
    }
  ],
  "bytecode": "0x6080604052348015600f57600080fd5b5061036d8061001f6000396000f3fe608060405234801561001057600080fd5b50600436106100415760003560e01c80637fe8888514610046578063a7f16b9214610062578063ef020f4a14610092575b600080fd5b610060600480360381019061005b9190610223565b6100c2565b005b61007c60048036038101906100779190610223565b61019f565b604051610089919061026b565b60405180910390f35b6100ac60048036038101906100a79190610223565b6101bf565b6040516100b9919061026b565b60405180910390f35b60008082815260200190815260200160002060009054906101000a900460ff1615610122576040517f08c379a0000000000000000000000000000000000000000000000000000000008152600401610119906102e3565b60405180910390fd5b600160008083815260200190815260200160002060006101000a81548160ff0219169083151502179055503373ffffffffffffffffffffffffffffffffffffffff16817f192e69f94d5a442b883f93bca740488311febcbe330646752a2f4c83f4a2f3dc42604051610194919061031c565b60405180910390a350565b60006020528060005260406000206000915054906101000a900460ff1681565b600080600083815260200190815260200160002060009054906101000a900460ff169050919050565b600080fd5b6000819050919050565b610200816101ed565b811461020b57600080fd5b50565b60008135905061021d816101f7565b92915050565b600060208284031215610239576102386101e8565b5b60006102478482850161020e565b91505092915050565b60008115159050919050565b61026581610250565b82525050565b6000602082019050610280600083018461025c565b92915050565b600082825260208201905092915050565b7f4861736820616c72656164792073746f72656400000000000000000000000000600082015250565b60006102cd601383610286565b91506102d882610297565b602082019050919050565b600060208201905081810360008301526102fc816102c0565b9050919050565b6000819050919050565b61031681610303565b82525050565b6000602082019050610331600083018461030d565b9291505056fea2646970667358221220b4f0ab6f0adb296bdf8fef780be9c26b64c97e877c9c4c58f5c7ffec3f71799064736f6c634300081c0033",
  "linkReferences": {},
  "deployedLinkReferences": {}
}